:100000000C9434000C943E000C943E000C943E0082
:100010000C943E000C943E000C943E000C943E0068
:100020000C943E000C943E000C943E000C943E0058
:100030000C943E000C943E000C943E000C943E0048
:100040000C943E000C943E000C943E000C943E0038
:100050000C943E000C943E000C943E000C943E0028
:100060000C943E000C943E0011241FBECFEFD8E04C
:10007000DEBFCDBF0E946F000C94C8020C9400003C
:10008000ECE7F0E0808180648083EAE7F0E0808143
:10009000876880830895ECE7F0E09081907F9083FB
:1000A00090818F70982B9083EAE7F0E080818064E4
:1000B0008083808184FFFDCF60917800709179000A
:1000C00080E090E00E94ED010895982F929596951A
:1000D0009695937095B9880F880F8BB9089583E032
:1000E00084B984E087B98CEF8AB90E944000912CD2
:1000F000F12C00E010E0D0E0312CC0E06894222424
:1001000022F8E12C6894DD24D1F8A12CB12CC12C6B
:10011000812CC230A1F030F4CC2351F0C13009F46D
:1001200042C004C0C33081F0C43061F1CE2D43C061
:10013000349B03C0429AC1E03EC042983CC087EC69
:100140008F15C0F5C22D37C08E2D0E944B002B019C
:100150003C0181E00E944B009B01AC01C301B20154
:100160000E94DF009B01AC015F77602F712F8D2F04
:10017000932D0E94E000062F172FD82F392EF394CD
:10018000CD2D19C020E030EC48E454E4602F712FED
:100190008D2F932D0E944C010E947B020E94BE0174
:1001A000962ECE2D08C0F12C0A2D1B2DDC2D382CBF
:1001B000CD2D01C0C3E0892D0E946500AACF505803
:1001C000BB27AA270E94F7000C9441020E94330229
:1001D00038F00E943A0220F039F49F3F19F426F4D7
:1001E0000C9430020EF4E095E7FB0C942A02E92F00
:1001F0000E94520258F3BA176207730784079507E3
:1002000020F079F4A6F50C9474020EF4E0950B2E10
:10021000BA2FA02D0B01B90190010C01CA01A00158
:100220001124FF27591B99F0593F50F4503E68F1B3
:100230001A16F040A22F232F342F4427585FF3CFF4
:10024000469537952795A795F0405395C9F77EF4C5
:100250001F16BA0B620B730B840BBAF09150A1F00E
:10026000FF0FBB1F661F771F881FC2F70EC0BA0F94
:10027000621F731F841F48F4879577956795B7951C
:10028000F7959E3F08F0B0CF9395880F08F0992717
:10029000EE0F9795879508950E9460010C94410296
:1002A0000E943A0258F00E94330240F029F45F3F66
:1002B00029F00C942A0251110C9475020C9430020E
:1002C0000E94520268F39923B1F3552391F3951BD1
:1002D000550BBB27AA2762177307840738F09F5F67
:1002E0005F4F220F331F441FAA1FA9F335D00E2ED4
:1002F0003AF0E0E832D091505040E695001CCAF741
:100300002BD0FE2F29D0660F771F881FBB1F261703
:1003100037074807AB07B0E809F0BB0B802DBF01DA
:10032000FF2793585F4F3AF09E3F510578F00C94A9
:100330002A020C9475025F3FE4F3983ED4F386954D
:1003400077956795B795F7959F5FC9F7880F911DCA
:100350009695879597F90895E1E0660F771F881FB6
:10036000BB1F621773078407BA0720F0621B730B69
:10037000840BBA0BEE1F88F7E09508950E945A028D
:1003800088F09F5798F0B92F9927B751B0F0E1F056
:10039000660F771F881F991F1AF0BA95C9F714C006
:1003A000B13091F00E947402B1E008950C9474028F
:1003B000672F782F8827B85F39F0B93FCCF386953F
:1003C00077956795B395D9F73EF49095809570959C
:1003D00061957F4F8F4F9F4F0895E89409C097FB19
:1003E0003EF490958095709561957F4F8F4F9F4F0C
:1003F0009923A9F0F92F96E9BB279395F695879550
:1004000077956795B795F111F8CFFAF4BB0F11F412
:1004100060FF1BC06F5F7F4F8F4F9F4F16C08823B9
:1004200011F096E911C0772321F09EE8872F762FEF
:1004300005C0662371F096E8862F70E060E02AF030
:100440009A95660F771F881FDAF7880F969587951C
:1004500097F9089597F99F6780E870E060E0089544
:100460009FEF80EC089500240A94161617061806CC
:100470000906089500240A941216130614060506A8
:100480000895092E0394000C11F4882352F0BB0F39
:1004900040F4BF2B11F460FF04C06F5F7F4F8F4F9C
:1004A0009F4F089557FD9058440F551F59F05F3FD7
:1004B00071F04795880F97FB991F61F09F3F79F086
:1004C00087950895121613061406551FF2CF469508
:1004D000F1DF08C0161617061806991FF1CF86958A
:1004E0007105610508940895E894BB27662777276E
:1004F000CB0197F908950E945A02E8F09E37E8F080
:100500009639B8F49E3848F4672F782F8827985F7B
:10051000F9CF86957795679593959539D0F3B62F52
:10052000B1706B0F711D811D20F4879577956795CC
:1005300093950C949F020C94BA020C947502882334
:1005400071F4772321F09850872B762F07C066230C
:1005500011F499270DC09051862B70E060E02AF0CD
:100560009A95660F771F881FDAF7880F96958795FB
:1005700097F908959F3F31F0915020F48795779532
:100580006795B795880F911D9695879597F908956A
:04059000F894FFCF0D
:00000001FF
