S00E00004D61737465722E73726563AA
S11300000C9444000C944E000C944E000C944E003E
S11300100C944E000C944E000C944E000C944E0024
S11300200C944E000C944E000C944E000C944E0014
S11300300C944E000C944E000C944E000C944E0004
S11300400C944E000C944E000C944E000C944E00F4
S11300500C944E000C944E000C944E000C944E00E4
S11300600C944E000C944E009F007F00810083008E
S11300708500870089008B008D008F00910093001C
S11300809500970099009B0011241FBECFEFD8E084
S1130090DEBFCDBF0E94B0000C94C7000C940000DA
S11300A0ECE7F0E0808180648083EAE7F0E080811F
S11300B0876880830895EAE7F0E080818064808324
S11300C0808184FFFDCF809178009091790096958E
S11300D08795969587950895982F990F990F9BB9B1
S11300E0829586958695837085B9089590E08031D0
S11300F0910518F5FC01EC5CFF4F0C94C10086E0FF
S113010008958BE508958FE4089586E608958DE6B5
S113011008958DE7089587E008958FE7089587E6A9
S1130120089587E708958CE7089589E308958EE597
S1130130089589E7089581E7089580E008958FE39D
S1130140089584B1886284B98CB581658CBD0895A5
S11301502A988EBD0DB407FEFDCF2A9A8EB5089558
S11301608CEF8AB985E084B90E9450000E94A100F6
S11301700E945B000E94A8000E9476000E946C000E
S1130180F7CFEE0FFF1F0590F491E02D0994F8943A
S1050190FFCF9B
S9030000FC
