:100000000C9434000C943E000C943E000C943E0082
:100010000C943E000C943E000C943E000C943E0068
:100020000C943E000C943E000C943E000C943E0058
:100030000C943E000C943E000C943E000C943E0048
:100040000C943E000C943E000C943E000C943E0038
:100050000C943E000C943E000C943E000C943E0028
:100060000C943E000C943E0011241FBECFEFD8E04C
:10007000DEBFCDBF0E9450000C946A000C940000BB
:10008000E0E8F0E0808181688083E1E8F0E0808151
:100090008A6080830895249A8CB580648CBD08950D
:1000A000219A80EF90E090938900809388000E94CD
:1000B0004B000E944000E8E8F0E00DB407FEFDCFE1
:1000C0008EB590E09183808389B18C7386958695F7
:0800D0008EBDF3CFF894FFCFC1
:00000001FF
