S01400004174697669646164652031352E73726563FF
S11300000C9434000C9446000C9446000C94460066
S11300100C9446000C9446000C9446000C94460044
S11300200C9446000C9446000C9446000C946B010E
S11300300C9446000C9446000C9446000C94460024
S11300400C9446000C9446000C9491010C944600C8
S11300500C9446000C9446000C9446000C94460004
S11300600C9446000C94460011241FBECFEFD8E038
S1130070DEBFCDBF21E0A0E0B1E001C01D92A530FC
S1130080B207E1F70E94A7000C9404020C9400004C
S1130090E0EBF0E0808183688083E1EBF0E0808135
S11300A0846080830895E1E8F0E080818C6080833F
S11300B0EFE6F0E080818260808381E19AE79093AB
S11300C08900809388000895E1E8F0E08081837FCF
S11300D08083EFE6F0E080818D7F80830895ECE7F4
S11300E0F0E0808180648083EAE7F0E080818768C3
S11300F080830895ECE7F0E080818F7B8083EAE7DA
S1130100F0E08081887780830895EAE7F0E08081D9
S113011080648083808184FFFDCF809178009091FA
S1130120790096958795969587950895E1ECF0E08A
S1130130808188698083E2ECF0E08081866080833E
S113014087E690E09093C5008093C400089588E00A
S113015084B917B882E08AB90E9448001092B300AB
S11301600E9496007894C1ECD0E0339B0CC0888147
S11301708F7788830E9453000E946F000E9485003D
S113018080930401F2CF8881806888830E94640090
S11301900E947A00EACFCF92DF92EF92FF920F9300
S11301A01F93CF93DF93CDB7DEB728970FB6F8949C
S11301B0DEBF0FBECDBF482FFE01319688E0DF01C0
S11301C01D928A95E9F7E9E24E9FE12D1124E2950B
S11301D0EF7009811A816B817C8131E020E0F0E0CD
S11301E0C42ED12C0F2EFAE0EF2EF12CF02D02C0EC
S11301F02F5F3F5F222309F45DC0213061F45CE985
S11302005003C001519F900D11248C0D9D1DB70109
S11302100E94DC01EDCF2230C1F41A8309837C8370
S11302206B832CE92003C001219F900D11249C01B4
S1130230240F311D46EF4603C001479F900D112442
S1130240820F931F9E838D8306C0333088F21A83F6
S113025009837C836B83BE016F5F7F4FFB0180E06A
S11302604AE050E0833038F420813181205D3F4FF3
S11302703183208302C0518340838F5F3296843060
S113028089F790E0E0ECF0E026EC30E00FC08081EC
S113029085FD03C09430D8F30FC0DB018C916E5FF1
S11302A07F4FD9018C939F5F943031F0808185FD1D
S11302B0F4CFEDCF8F019CCF28960FB6F894DEBF14
S11302C00FBECDBFDF91CF911F910F91FF90EF90A3
S11302D0DF90CF9008951F920F920FB60F921124C2
S11302E02F933F934F935F936F937F938F939F933A
S11302F0AF93BF93EF93FF93809104010E94CB00CF
S1130300FF91EF91BF91AF919F918F917F916F91E9
S11303105F914F913F912F910F900FBE0F901F90BF
S113032018951F920F920FB60F9211242F933F939B
S11303304F935F936F937F938F939F93AF93BF93E9
S1130340EF93FF93E0910301F0E08091C600E05049
S1130350FF4F8083809103018F5F8093030180911D
S113036003018330C1F4E0E0F1E0908181812281D6
S11303709053205334E6939F200D1124880F805608
S1130380982F990F990F890F820F8093B3001092C1
S113039003010E94CB00FF91EF91BF91AF919F9118
S11303A08F917F916F915F914F913F912F910F901A
S11303B00FBE0F901F90189597FB072E16F400940C
S11303C007D077FD09D00E94F00107FC05D03EF468
S11303D0909581959F4F0895709561957F4F0895ED
S11303E0AA1BBB1B51E107C0AA1FBB1FA617B70757
S11303F010F0A61BB70B881F991F5A95A9F7809573
S10F04009095BC01CD010895F894FFCF45
S9030000FC
