:100000000C9434000C9446000C9446000C9446006A
:100010000C9446000C9446000C9446000C94460048
:100020000C9446000C9446000C9446000C94460038
:100030000C9446000C9446000C9446000C94460028
:100040000C9446000C9446000C9446000C94460018
:100050000C9446000C9446000C9446000C94460008
:100060000C9446000C94460011241FBECFEFD8E03C
:10007000DEBFCDBF21E0A0E0B1E001C01D92A03005
:10008000B207E1F70E9477000C9491000C940000F5
:10009000E0EBF0E0808183688083E1EBF0E0808139
:1000A000846080830895F8948093B30078940895D1
:1000B000E1ECF0E0808188618083E2ECF0E0808117
:1000C0008660808387E690E09093C5008093C400AB
:1000D0000895E0ECF0E0808185FFFDCF80E3809320
:1000E000C600E0ECF0E0808186FFFDCF089588E057
:1000F00084B917B882E08AB90E9448008FE70E944D
:1001000053000E945800789480E00E9469002FEF0D
:1001100089E698E1215080409040E1F700C000005E
:06012000F3CFF894FFCFBD
:00000001FF
