:020000020000FC
:1000000000C00CEF0AB903E004B907E007B90FE13B
:1000100011E022273327113038F4043628F40A304F
:1000200058F4132F0C9420000456239510F00C94D0
:100030000B001A950C940B000A5033950C940B008E
:10004000322F0E943E0064E068B90E943700312FD1
:100050000E943E0062E068B90E943700302F0E9483
:100060003E0061E068B90E9437000C94200048E629
:1000700055EE5A95F1F74A95E1F708953030F1F0D1
:10008000313001F1323011F1333021F1343031F1BE
:10009000353041F1363051F1373061F1383071F19E
:1000A000393081F13A3091F13B30A1F13C30B1F17E
:1000B0003D30C1F13E30D1F13F30E1F14CEF50E045
:1000C0000C949E0048E150E00C949E004CE651E0F8
:1000D0000C949E004CE351E00C949E0048E951E0E2
:1000E0000C949E0044EB51E00C949E0044EF51E0D0
:1000F0000C949E004CE150E00C949E004CEF51E0BB
:100100000C949E004CE951E00C949E004CED51E0A3
:100110000C949E0040EF51E00C949E0044EE50E0A1
:100120000C949E0048E751E00C949E0044EE51E090
:100130000C949E0044EC51E00C949E004BB955B9D0
:02014000089520
:00000001FF
