:020000020000FC
:1000000000C00CEF0AB901E004B900E007B906B17D
:100010000170003019F00130D1F0F9CF10E81BB9B0
:100020000E94580010E41BB90E94580010E21BB94E
:100030000E94580010E11BB90E94580018E01BB93B
:100040000E94580014E01BB90E945800E0CF10E84D
:1000500020E01BB925B90E94580010E021E01BB92F
:1000600025B90E94580010E120E01BB925B90E9473
:10007000580010E220E01BB925B90E94580010E496
:1000800020E01BB925B90E94580010E021E01BB9FF
:1000900025B90E94580018E020E01BB925B90E943C
:1000A000580014E020E01BB925B90E945800AFCFDA
:1000B00039E14AE552EB5A95F1F74A95E1F73A955D
:0400C000D1F70895D7
:00000001FF
