:020000020000FC
:1000000000C000EF1CEF23E007B91AB924B906B10C
:100010000030F1F0013001F1023011F1033021F133
:10002000043031F1053041F1063051F1073061F112
:10003000083071F1093081F10A3091F10B30A1F1F2
:100040000C30B1F10D30C1F10E30D1F10F30E1F1D2
:100050001CEF20E00C94680018E120E00C9468008C
:100060001CE621E00C9468001CE321E00C9468007D
:1000700018E921E00C94680014EB21E00C9468006E
:1000800014EF21E00C9468001CE120E00C9468005F
:100090001CEF21E00C9468001CE921E00C9468003E
:1000A0001CED21E00C94680010EF21E00C94680036
:1000B00014EE20E00C94680018E721E00C9468002E
:1000C00014EE21E00C94680014EC21E00C9468001C
:0800D0001BB925B90C940700CF
:00000001FF
