:100000000C9443000C9455000C9455000C9455002E
:100010000C9455000C9455000C9455000C9455000C
:100020000C9455000C9455000C9455000C94CD0084
:100030000C9455000C9455000C9455000C945500EC
:100040000C9455000C9455000C9455000C945500DC
:100050000C9455000C9455000C9455000C945500CC
:100060000C9455000C94550005A84CCDB2D44EB953
:100070003836A9020C50B9918688083CA6AAAA2A4B
:10008000BE000000803F11241FBECFEFD8E0DEBFCE
:10009000CDBF21E0A0E0B1E001C01D92A630B207C3
:1000A000E1F70E9481000C946A030C9400008AE03E
:1000B0009AE19093890080938800E1E8F0E08081E4
:1000C00089608083EFE6F0E08081826080837894AD
:1000D0000895ECE7F0E0808180648083EAE7F0E057
:1000E0008081876880830895EAE7F0E080818064FA
:1000F0008083808184FFFDCF80917800909179008A
:1001000008958CEF8AB983E084B917B80E9457002C
:100110000E9469000E947400EC01609104017091DA
:10012000050180E090E00E94A8012DED3EE74CE340
:1001300054E40E94750227E838E74AED59E30E942B
:1001400075020E9474016B017C01BE0180E090E0A9
:100150000E94A80120E030E040E05EE30E947502CA
:10016000A70196010E94750220E030E04FEF52E4B3
:100170000E940801609300017093010180930201C5
:1001800090930301C7CF982F92959695969593706B
:1001900095B9880F880F8BB908951F920F920FB6EB
:1001A0000F9211242F933F934F935F936F937F93FD
:1001B0008F939F93AF93BF93EF93FF936091000151
:1001C0007091010180910201909103010E94E2026D
:1001D0000E947901862F0E94C300809104019091B2
:1001E000050101969093050180930401FF91EF9121
:1001F000BF91AF919F918F917F916F915F914F913F
:100200003F912F910F900FBE0F901F90189550584F
:10021000BB27AA270E941F010C9427020E94EE010F
:1002200038F00E94F50120F039F49F3F19F426F4CC
:100230000C94EB010EF4E095E7FB0C94E501E92F3B
:100240000E944C0258F3BA17620773078407950798
:1002500020F079F4A6F50C946E020EF4E0950B2EC6
:10026000BA2FA02D0B01B90190010C01CA01A00108
:100270001124FF27591B99F0593F50F4503E68F163
:100280001A16F040A22F232F342F4427585FF3CFA4
:10029000469537952795A795F0405395C9F77EF475
:1002A0001F16BA0B620B730B840BBAF09150A1F0BE
:1002B000FF0FBB1F661F771F881FC2F70EC0BA0F44
:1002C000621F731F841F48F4879577956795B795CC
:1002D000F7959E3F08F0B0CF9395880F08F09927C7
:1002E000EE0F9795879508950E94FE01E3950C9473
:1002F00038020E94540288F09F5798F0B92F99272E
:10030000B751B0F0E1F0660F771F881F991F1AF000
:10031000BA95C9F714C0B13091F00E946E02B1E0F5
:1003200008950C946E02672F782F8827B85F39F0F4
:10033000B93FCCF3869577956795B395D9F73EF499
:1003400090958095709561957F4F8F4F9F4F089541
:10035000E89409C097FB3EF490958095709561955F
:100360007F4F8F4F9F4F9923A9F0F92F96E9BB2715
:100370009395F695879577956795B795F111F8CF91
:10038000FAF4BB0F11F460FF1BC06F5F7F4F8F4FFC
:100390009F4F16C0882311F096E911C0772321F0F2
:1003A0009EE8872F762F05C0662371F096E8862F8A
:1003B00070E060E02AF09A95660F771F881FDAF7E1
:1003C000880F9695879597F9089597F99F6780E824
:1003D00070E060E008959FEF80EC089500240A9497
:1003E0001616170618060906089500240A94121610
:1003F00013061406050608950C94EB010E9454029E
:10040000D8F3E894E0E0BB279F57F0F02AED3FE0F7
:1004100049EC06C0EE0FBB0F661F771F881F28F040
:10042000B23A62077307840728F0B25A620B730B63
:10043000840BE3959A9572F7803830F49A95BB0F48
:10044000661F771F881FD2F790480C942303092E4C
:100450000394000C11F4882352F0BB0F40F4BF2B1F
:1004600011F460FF04C06F5F7F4F8F4F9F4F08955F
:10047000EF93E0FF07C0A2EA2AED3FE049EC5FEB13
:100480000E941F010E9427020F90039401FC9058C4
:10049000E8E6F0E00C942F0357FD9058440F551FE9
:1004A00059F05F3F71F04795880F97FB991F61F0F6
:1004B0009F3F79F087950895121613061406551F6D
:1004C000F2CF4695F1DF08C0161617061806991FD9
:1004D000F1CF86957105610508940895E894BB27CE
:1004E00066277727CB0197F908950E9488020C941C
:1004F00027020E94EE0138F00E94F50120F09523BA
:1005000011F00C94E5010C94EB0111240C946F0292
:100510000E944C0270F3959FC1F3950F50E0551F58
:10052000629FF001729FBB27F00DB11D639FAA2748
:10053000F00DB11DAA1F649F6627B00DA11D661F97
:10054000829F2227B00DA11D621F739FB00DA11DB8
:10055000621F839FA00D611D221F749F3327A00D72
:10056000611D231F849F600D211D822F762F6A2F0E
:1005700011249F5750409AF0F1F088234AF0EE0F73
:10058000FF1FBB1F661F771F881F91505040A9F7A0
:100590009E3F510580F00C94E5010C946F025F3F83
:1005A000E4F3983ED4F3869577956795B795F795DC
:1005B000E7959F5FC1F7FE2B880F911D9695879554
:1005C00097F908950E945402E8F09E37E8F09639B2
:1005D000B8F49E3848F4672F782F8827985FF9CFB2
:1005E00086957795679593959539D0F3B62FB17029
:1005F0006B0F711D811D20F48795779567959395F5
:100600000C9406030C9421030C946F02882371F45C
:10061000772321F09850872B762F07C0662311F49B
:1006200099270DC09051862B70E060E02AF09A95D2
:10063000660F771F881FDAF7880F9695879597F9C9
:1006400008959F3F31F0915020F4879577956795F5
:10065000B795880F911D9695879597F908959F9363
:100660008F937F936F93FF93EF939B01AC010E9455
:100670007502EF91FF910E9443032F913F914F919B
:100680005F910C947502DF93CF931F930F93FF92AA
:10069000EF92DF927B018C01689406C0DA2EEF01A5
:1006A0000E948802FE01E894A5912591359145911B
:1006B0005591A6F3EF010E941F01FE019701A801C9
:1006C000DA9469F7DF90EF90FF900F911F91CF912F
:0806D000DF910895F894FFCFBB
:00000001FF
