:100000000C9444000C9461000C9461000C94610009
:100010000C9461000C9461000C9461000C946100DC
:100020000C9461000C9461000C9461000C946100CC
:100030000C9461000C9461000C9461000C946100BC
:100040000C9461000C9461000C9435010C946100D7
:100050000C9461000C9461000C9461000C9461009C
:100060000C9461000C946100A80188018A018C0144
:100070008E01900192019401960198019A019C01D0
:100080009E01A001A201A40111241FBECFEFD8E060
:10009000DEBFCDBF11E0A0E0B1E0E6E1F4E002C0D8
:1000A00005900D92AA30B107D9F721E0AAE0B1E09E
:1000B00001C01D92A131B207E1F70E94AA010C9480
:1000C00009020C940000E1ECF0E0808188698083F3
:1000D000E2ECF0E080818660808387E690E0909398
:1000E000C5008093C4000895F999FECF90E092BDB9
:1000F00081BD60BDFA9AF99AF999FECF0895F999F0
:10010000FECF90E092BD81BDF89A80B50895CF9260
:10011000DF92EF92FF920F931F93CF93DF93CDB7B0
:10012000DEB728970FB6F894DEBF0FBECDBF482FBD
:10013000FE01319688E0DF011D928A95E9F7E9E238
:100140004E9FE12D1124E295EF7009811A816B8198
:100150007C8131E020E0F0E0C42ED12C0F2EFAE0BB
:10016000EF2EF12CF02D02C02F5F3F5F222309F408
:100170006BC0213061F45CE95003C001519F900DC8
:1001800011248C0D9D1DB7010E94DB01EDCF2230A3
:10019000C1F41A8309837C836B832CE92003C0019B
:1001A000219F900D11249C01240F311D46EF460321
:1001B000C001479F900D1124820F931F9E838D8352
:1001C00006C0333088F21A8309837C836B83FE0177
:1001D000319680E04AE050E0833038F4208131816C
:1001E000205D3F4F3183208302C0518340838F5F66
:1001F0003296843089F7BE016151710920E030E008
:10020000E0ECF0E046EC50E01BC0808185FD03C0CF
:100210002D30D8F31BC0293040F4C90180509F4FC6
:10022000DC018C91DA018C9304C0DB018C91DA0142
:100230008C932F5F3F4F6E5F7F4F2D30310531F034
:10024000808185FDE8CFE1CF8F018ECF28960FB654
:10025000F894DEBF0FBECDBFDF91CF911F910F91FC
:10026000FF90EF90DF90CF9008951F920F920FB6FE
:100270000F9211242F933F938F939F93EF93FF93AC
:10028000E0910A01F0E08091C600E55FFE4F8083B7
:1002900080910A018F5F80930A0180910A01833067
:1002A000C9F4EBE0F1E090818181228190532053E9
:1002B00034E6939F200D1124880F8056982F990FB4
:1002C000990F890F820F80930F0181E080930E01B7
:1002D00010920A01FF91EF919F918F913F912F9181
:1002E0000F900FBE0F901F901895982F990F990F90
:1002F0009BB9829586958695837085B9089590E01F
:100300008031910518F5FC01EC5CFF4F0C94EF0176
:1003100086E008958BE508958FE4089586E60895B4
:100320008DE608958DE7089587E008958FE7089595
:1003300087E6089587E708958CE7089589E308958F
:100340008EE5089589E7089581E7089580E008958E
:100350008FE308958EEF8AB981E084B917B8E1EC94
:10036000F0E08081806880830E94630078948091AF
:1003700010010E94870080910E01813099F4F89459
:1003800060910F01809110010E94740010920E0183
:10039000809110018F5F80931001809110010E9465
:1003A0008700789486B18F700E947F000E947F0141
:1003B0000E947501E0CF97FB072E16F4009407D03A
:1003C00077FD09D00E94F50107FC05D03EF4909519
:1003D00081959F4F0895709561957F4F0895EE0F19
:1003E000FF1F0590F491E02D0994AA1BBB1B51E15E
:1003F00007C0AA1FBB1FA617B70710F0A61BB70B95
:10040000881F991F5A95A9F780959095BC01CD0139
:060410000895F894FFCFEF
:0A041600416464726573733A2000BC
:00000001FF
