S01400004174697669646164652031362E73726563FE
S11300000C9434000C9451000C9451000C94510045
S11300100C9451000C9451000C9451000C94510018
S11300200C9451000C9451000C9451000C94FD005C
S11300300C9451000C9451000C9451000C945100F8
S11300400C9451000C9451000C9451000C945100E8
S11300500C9451000C9451000C9451000C945100D8
S11300600C9451000C94510011241FBECFEFD8E022
S1130070DEBFCDBF11E0A0E0B1E0E6E9F5E002C0EB
S113008005900D92A43BB107D9F721E0A4EBB1E0B0
S113009001C01D92A83EB207E1F70E9470000C94C3
S11300A0C9020C9400008FE99FE09093890080932B
S11300B08800E1E8F0E080818A608083EFE6F0E088
S11300C080818260808378940895ECE7F0E08081F9
S11300D080648083EAE7F0E0808187688083089504
S11300E08CEF8AB983E084B917B880E090E0FC0112
S11300F0E554FE4F108201968D329105C1F70E949E
S113010053000E9465000F2EFAE7AF2EB12CF02D9C
S11301100F2EF8E72F2E312CF02D0F2EFBEB8F2E08
S1130120F1E09F2EF02D8091B8018111FCCFF501F3
S1130130808184FFFCCFF101808191819695879520
S1130140969587958093B9018BE290E0FC01E55484
S1130150FE4F2081FC01E454FE4F20830197B0F749
S11301608091B901F401808300E011E0C0E0D0E0A7
S1130170FE01E554FE4F6081F801C190D190E190F9
S1130180F1908F014090B4015090B5016090B60198
S11301907090B70170E080E090E00E94D001A70168
S11301A096010E945C02A30192010E9433016093B4
S11301B0B4017093B5018093B6019093B701219671
S11301C0CD32D105A9F66091B4017091B501809149
S11301D0B6019091B7010E949F016093BA01F1E0CA
S11301E0F093B801A0CF982F929596959695937019
S11301F095B9880F880F8BB908951F920F920FB687
S11302000F9211242F933F934F935F936F937F9398
S11302108F939F93AF93BF93EF93FF938091BA0112
S11302200E94F3001092B4011092B5011092B6012D
S11302301092B701EAE7F0E0808180648083109235
S1130240B801FF91EF91BF91AF919F918F917F91F1
S11302506F915F914F913F912F910F900FBE0F902F
S11302601F9018955058BB27AA270E944A010C9446
S113027022020E94140238F00E941B0220F039F47A
S11302809F3F19F426F40C9411020EF4E095E7FB59
S11302900C940B02E92F0E94330258F3BA17620739
S11302A073078407950720F079F4A6F50C9455029A
S11302B00EF4E0950B2EBA2FA02D0B01B90190017D
S11302C00C01CA01A0011124FF27591B99F0593FC1
S11302D050F4503E68F11A16F040A22F232F342F09
S11302E04427585FF3CF469537952795A795F04057
S11302F05395C9F77EF41F16BA0B620B730B840B6C
S1130300BAF09150A1F0FF0FBB1F661F771F881F23
S1130310C2F70EC0BA0F621F731F841F48F487957B
S113032077956795B795F7959E3F08F0B0CF93956D
S1130330880F08F09927EE0F9795879508950E94E6
S11303403B0288F09F5798F0B92F9927B751B0F026
S1130350E1F0660F771F881F991F1AF0BA95C9F745
S113036014C0B13091F00E945502B1E008950C948C
S11303705502672F782F8827B85F39F0B93FCCF33F
S1130380869577956795B395D9F73EF490958095C2
S1130390709561957F4F8F4F9F4F0895E89409C0E2
S11303A097FB3EF490958095709561957F4F8F4FA4
S11303B09F4F9923A9F0F92F96E9BB279395F695BA
S11303C0879577956795B795F111F8CFFAF4BB0F38
S11303D011F460FF1BC06F5F7F4F8F4F9F4F16C09C
S11303E0882311F096E911C0772321F09EE8872F26
S11303F0762F05C0662371F096E8862F70E060E0E2
S11304002AF09A95660F771F881FDAF7880F96955A
S1130410879597F9089597F99F6780E870E060E001
S113042008959FEF80EC089500240A941616170689
S113043018060906089500240A94121613061406D1
S113044005060895092E0394000C11F4882352F034
S1130450BB0F40F4BF2B11F460FF04C06F5F7F4FEC
S11304608F4F9F4F089557FD9058440F551F59F0D3
S11304705F3F71F04795880F97FB991F61F09F3F8D
S113048079F087950895121613061406551FF2CFB6
S11304904695F1DF08C0161617061806991FF1CF06
S11304A086957105610508940895E894BB2766272D
S11304B07727CB0197F908950E946F020C942202CA
S11304C00E94140238F00E941B0220F0952311F0C0
S11304D00C940B020C94110211240C9456020E94E9
S11304E0330270F3959FC1F3950F50E0551F629F3F
S11304F0F001729FBB27F00DB11D639FAA27F00D79
S1130500B11DAA1F649F6627B00DA11D661F829F9F
S11305102227B00DA11D621F739FB00DA11D621F84
S1130520839FA00D611D221F749F3327A00D611DA1
S1130530231F849F600D211D822F762F6A2F112483
S11305409F5750409AF0F1F088234AF0EE0FFF1FB6
S1130550BB1F661F771F881F91505040A9F79E3F0D
S1130560510580F00C940B020C9456025F3FE4F3A7
S1130570983ED4F3869577956795B795F795E79563
S11305809F5FC1F7FE2B880F911D9695879597F96C
S10905900895F894FFCF6A
S11305964FA7C33BAA72533B96BD4C3B13700C3B0F
S11305A6353202398F5E3EBBE124DDBB37B733BC3F
S11305B6F2B774BC5B7C92BCBA5D9BBC39958EBCAD
S11305C6802F4EBCFABD88BB0716FF3B000ABB3C16
S11305D6C943243D0D2B6F3D5C2B9C3DD2C7BC3DCE
S11305E64982D63D9FFBE63D2CA7EC3D9FFBE63DAD
S11305F64982D63DD2C7BC3D5C2B9C3D0D2B6F3D3D
S1130606C943243D000ABB3C0716FF3BFABD88BB21
S1130616802F4EBC39958EBCBA5D9BBC5B7C92BC6C
S1130626F2B774BC37B733BCE124DDBB8F5E3EBB87
S11306363532023913700C3B96BD4C3BAA72533BC0
S10706464FA7C33BB8
S9030000FC
