:100000000C9443000C9455000C9455000C9455002E
:100010000C9455000C9455000C9455000C9455000C
:100020000C9455000C9455000C9455000C94CE0083
:100030000C9455000C9455000C9455000C945500EC
:100040000C9455000C9455000C9455000C945500DC
:100050000C9455000C9455000C9455000C945500CC
:100060000C9455000C94550005A84CCDB2D44EB953
:100070003836A9020C50B9918688083CA6AAAA2A4B
:10008000BE000000803F11241FBECFEFD8E0DEBFCE
:10009000CDBF21E0A0E0B1E001C01D92A330B207C6
:1000A000E1F70E94A6000C9410040C9400008FEF5E
:1000B0009CE09093890080938800E1E8F0E08081E3
:1000C00089608083EFE6F0E08081826080837894AD
:1000D0000895E1E8F0E080811082EFE6F0E08081B1
:1000E0001082F8940895109202011092010110926A
:1000F000000118B80E94570086B18370E9F30E948E
:1001000069000895109202011092010181E080932C
:10011000000184E088B90E94570086B18370813065
:10012000E1F30E946900089510920201109201010A
:1001300082E08093000188E088B90E94570086B170
:1001400083708230E1F30E94690008958CE187B9E1
:100150008CEF8AB983E084B9C0E186B183708130C5
:1001600039F018F0823039F009C00E947300F5CFE1
:100170000E948200F2CF0E949400EFCF0E9469009B
:10018000C8B915B81BB8E9CF982F92959695969552
:10019000937095B9880F880F8BB908951F920F92AD
:1001A0000FB60F9211242F933F934F935F936F934A
:1001B0007F938F939F93AF93BF93EF93FF93809120
:1001C00000018130B1F120F0823009F449C097C0BC
:1001D000609101017091020180E090E00E9437027D
:1001E0002DED3EE74CEB53E40E94C5022BE13BE6CC
:1001F0004AE559E30E94C5020E94560320E030E020
:1002000040E85FE30E949C0120E030E04FEF52E4C1
:100210000E94C5020E940802862F0E94C40080919D
:1002200001019091020101969093020180930101D6
:1002300066C08091010190910201899720F48FEFAF
:100240000E94C40003C080E00E94C40080910101AC
:1002500090910201019690930201809301014FC099
:100260008091010190910201899718F58091010117
:10027000909102014FEF489F9001499F300D11244A
:10028000ADECBCEC0E940104969587959295829501
:100290008F7089279F708927BC0180E090E00E94C1
:1002A00037020E9432030E940802862F0E94C40077
:1002B0001DC0609101017091020180E090E00E94F8
:1002C000370220E030E04CEC50E40E94C5029B0174
:1002D000AC0160E070E08FEF93E40E949B010E940C
:1002E00032030E940802862F0E94C40080910101FF
:1002F00090910201019690930201809301018091F7
:100300000101909102018035910521F410920201C2
:1003100010920101FF91EF91BF91AF919F918F9149
:100320007F916F915F914F913F912F910F900FBEF1
:100330000F901F9018955058BB27AA270E94B30111
:100340000C948B020E947D0238F00E94840220F0FF
:1003500039F49F3F19F426F40C947A020EF4E095D8
:10036000E7FB0C947402E92F0E949C0258F3BA1721
:10037000620773078407950720F079F4A6F50C94BB
:10038000BE020EF4E0950B2EBA2FA02D0B01B90181
:1003900090010C01CA01A0011124FF27591B99F0FB
:1003A000593F50F4503E68F11A16F040A22F232F07
:1003B000342F4427585FF3CF469537952795A79557
:1003C000F0405395C9F77EF41F16BA0B620B730BFE
:1003D000840BBAF09150A1F0FF0FBB1F661F771F6F
:1003E000881FC2F70EC0BA0F621F731F841F48F424
:1003F000879577956795B795F7959E3F08F0B0CFAD
:100400009395880F08F09927EE0F97958795089593
:100410000E94A40288F09F5798F0B92F9927B751EE
:10042000B0F0E1F0660F771F881F991F1AF0BA9598
:10043000C9F714C0B13091F00E94BE02B1E0089536
:100440000C94BE02672F782F8827B85F39F0B93F28
:10045000CCF3869577956795B395D9F73EF490954B
:100460008095709561957F4F8F4F9F4F0895E894C9
:1004700009C097FB3EF490958095709561957F4FEC
:100480008F4F9F4F9923A9F0F92F96E9BB2793959A
:10049000F695879577956795B795F111F8CFFAF4AA
:1004A000BB0F11F460FF1BC06F5F7F4F8F4F9F4FDB
:1004B00016C0882311F096E911C0772321F09EE839
:1004C000872F762F05C0662371F096E8862F70E09F
:1004D00060E02AF09A95660F771F881FDAF7880F79
:1004E0009695879597F9089597F99F6780E870E04A
:1004F00060E008959FEF80EC089500240A9416169A
:10050000170618060906089500240A941216130601
:10051000140605060895092E0394000C11F488238F
:1005200052F0BB0F40F4BF2B11F460FF04C06F5FAB
:100530007F4F8F4F9F4F089557FD9058440F551F81
:1005400059F05F3F71F04795880F97FB991F61F055
:100550009F3F79F087950895121613061406551FCC
:10056000F2CF4695F1DF08C0161617061806991F38
:10057000F1CF86957105610508940895E894BB272D
:1005800066277727CB0197F908950E94D8020C942B
:100590008B020E947D0238F00E94840220F0952395
:1005A00011F00C9474020C947A0211240C94BF0282
:1005B0000E949C0270F3959FC1F3950F50E0551F68
:1005C000629FF001729FBB27F00DB11D639FAA27A8
:1005D000F00DB11DAA1F649F6627B00DA11D661FF7
:1005E000829F2227B00DA11D621F739FB00DA11D18
:1005F000621F839FA00D611D221F749F3327A00DD2
:10060000611D231F849F600D211D822F762F6A2F6D
:1006100011249F5750409AF0F1F088234AF0EE0FD2
:10062000FF1FBB1F661F771F881F91505040A9F7FF
:100630009E3F510580F00C9474020C94BF025F3F02
:10064000E4F3983ED4F3869577956795B795F7953B
:10065000E7959F5FC1F7FE2B880F911D96958795B3
:1006600097F908950E94A402E8F09E37E8F09639C1
:10067000B8F49E3848F4672F782F8827985FF9CF11
:1006800086957795679593959539D0F3B62FB17088
:100690006B0F711D811D20F4879577956795939554
:1006A0000C945E030C9479030C94BF029F930E94F8
:1006B00089030F9007FCEE5F0C94B203882371F45A
:1006C000772321F09850872B762F07C0662311F4EB
:1006D00099270DC09051862B70E060E02AF09A9522
:1006E000660F771F881FDAF7880F9695879597F919
:1006F00008959F3F31F0915020F487957795679545
:10070000B795880F911D9695879597F908950C9444
:100710007A020E94A402D8F3E894E0E0BB279F5736
:10072000F0F02AED3FE049EC06C0EE0FBB0F661F6C
:10073000771F881F28F0B23A62077307840728F0F2
:10074000B25A620B730B840BE3959A9572F780385B
:1007500030F49A95BB0F661F771F881FD2F7904819
:100760000C947B03EF93E0FF07C0A2EA2AED3FE081
:1007700049EC5FEB0E94B3010E948B020F9003943F
:1007800001FC9058E8E6F0E00C94C6039F938F9329
:100790007F936F93FF93EF939B01AC010E94C5027F
:1007A000EF91FF910E94DA032F913F914F915F915A
:1007B0000C94C502DF93CF931F930F93FF92EF9298
:1007C000DF927B018C01689406C0DA2EEF010E9453
:1007D000D802FE01E894A591259135914591559156
:1007E000A6F3EF010E94B301FE019701A801DA947C
:1007F00069F7DF90EF90FF900F911F91CF91DF91FC
:100800000895A29FB001B39FC001A39F700D811DE9
:100810001124911DB29F700D811D1124911D089509
:04082000F894FFCF7A
:00000001FF
